{
  "_format": "hh-sol-artifact-1",
  "contractName": "ProposalFactory",
  "sourceName": "contracts/futarchy/factory/ProposalFactory.sol",
  "abi": [
    {
      "inputs": [
        {
          "internalType": "address",
          "name": "_implementation",
          "type": "address"
        },
        {
          "internalType": "address",
          "name": "_exchange",
          "type": "address"
        }
      ],
      "stateMutability": "nonpayable",
      "type": "constructor"
    },
    {
      "inputs": [],
      "name": "FailedDeployment",
      "type": "error"
    },
    {
      "inputs": [
        {
          "internalType": "uint256",
          "name": "balance",
          "type": "uint256"
        },
        {
          "internalType": "uint256",
          "name": "needed",
          "type": "uint256"
        }
      ],
      "name": "InsufficientBalance",
      "type": "error"
    },
    {
      "anonymous": false,
      "inputs": [
        {
          "indexed": false,
          "internalType": "uint256",
          "name": "proposalId",
          "type": "uint256"
        },
        {
          "indexed": true,
          "internalType": "address",
          "name": "proposal",
          "type": "address"
        },
        {
          "indexed": true,
          "internalType": "address",
          "name": "collateralToken",
          "type": "address"
        }
      ],
      "name": "ProposalCreated",
      "type": "event"
    },
    {
      "inputs": [
        {
          "internalType": "string",
          "name": "description",
          "type": "string"
        },
        {
          "internalType": "uint256",
          "name": "duration",
          "type": "uint256"
        },
        {
          "internalType": "address",
          "name": "collateralToken",
          "type": "address"
        }
      ],
      "name": "createProposal",
      "outputs": [
        {
          "internalType": "address",
          "name": "",
          "type": "address"
        }
      ],
      "stateMutability": "nonpayable",
      "type": "function"
    },
    {
      "inputs": [],
      "name": "exchange",
      "outputs": [
        {
          "internalType": "address",
          "name": "",
          "type": "address"
        }
      ],
      "stateMutability": "view",
      "type": "function"
    },
    {
      "inputs": [],
      "name": "getAllProposalDetails",
      "outputs": [
        {
          "components": [
            {
              "internalType": "address",
              "name": "proposer",
              "type": "address"
            },
            {
              "internalType": "string",
              "name": "description",
              "type": "string"
            },
            {
              "internalType": "uint256",
              "name": "duration",
              "type": "uint256"
            },
            {
              "internalType": "address",
              "name": "collateralToken",
              "type": "address"
            }
          ],
          "internalType": "struct ProposalFactory.ProposalData[]",
          "name": "",
          "type": "tuple[]"
        }
      ],
      "stateMutability": "view",
      "type": "function"
    },
    {
      "inputs": [
        {
          "internalType": "uint256",
          "name": "id",
          "type": "uint256"
        }
      ],
      "name": "getProposal",
      "outputs": [
        {
          "internalType": "address",
          "name": "",
          "type": "address"
        }
      ],
      "stateMutability": "view",
      "type": "function"
    },
    {
      "inputs": [
        {
          "internalType": "address",
          "name": "proposalAddress",
          "type": "address"
        }
      ],
      "name": "getProposalDetails",
      "outputs": [
        {
          "components": [
            {
              "internalType": "address",
              "name": "proposer",
              "type": "address"
            },
            {
              "internalType": "string",
              "name": "description",
              "type": "string"
            },
            {
              "internalType": "uint256",
              "name": "duration",
              "type": "uint256"
            },
            {
              "internalType": "address",
              "name": "collateralToken",
              "type": "address"
            }
          ],
          "internalType": "struct ProposalFactory.ProposalData",
          "name": "",
          "type": "tuple"
        }
      ],
      "stateMutability": "view",
      "type": "function"
    },
    {
      "inputs": [],
      "name": "hello",
      "outputs": [
        {
          "internalType": "string",
          "name": "",
          "type": "string"
        }
      ],
      "stateMutability": "pure",
      "type": "function"
    },
    {
      "inputs": [],
      "name": "implementation",
      "outputs": [
        {
          "internalType": "address",
          "name": "",
          "type": "address"
        }
      ],
      "stateMutability": "view",
      "type": "function"
    },
    {
      "inputs": [],
      "name": "nextProposalId",
      "outputs": [
        {
          "internalType": "uint256",
          "name": "",
          "type": "uint256"
        }
      ],
      "stateMutability": "view",
      "type": "function"
    },
    {
      "inputs": [
        {
          "internalType": "address",
          "name": "",
          "type": "address"
        }
      ],
      "name": "proposalDetails",
      "outputs": [
        {
          "internalType": "address",
          "name": "proposer",
          "type": "address"
        },
        {
          "internalType": "string",
          "name": "description",
          "type": "string"
        },
        {
          "internalType": "uint256",
          "name": "duration",
          "type": "uint256"
        },
        {
          "internalType": "address",
          "name": "collateralToken",
          "type": "address"
        }
      ],
      "stateMutability": "view",
      "type": "function"
    },
    {
      "inputs": [
        {
          "internalType": "uint256",
          "name": "",
          "type": "uint256"
        }
      ],
      "name": "proposals",
      "outputs": [
        {
          "internalType": "address",
          "name": "",
          "type": "address"
        }
      ],
      "stateMutability": "view",
      "type": "function"
    }
  ],
  "bytecode": "0x608060405234801561001057600080fd5b506040516118383803806118388339818101604052810190610032919061011d565b816000806101000a81548173ffffffffffffffffffffffffffffffffffffffff021916908373ffffffffffffffffffffffffffffffffffffffff16021790555080600160006101000a81548173ffffffffffffffffffffffffffffffffffffffff021916908373ffffffffffffffffffffffffffffffffffffffff160217905550505061015d565b600080fd5b600073ffffffffffffffffffffffffffffffffffffffff82169050919050565b60006100ea826100bf565b9050919050565b6100fa816100df565b811461010557600080fd5b50565b600081519050610117816100f1565b92915050565b60008060408385031215610134576101336100ba565b5b600061014285828601610108565b925050602061015385828601610108565b9150509250929050565b6116cc8061016c6000396000f3fe608060405234801561001057600080fd5b506004361061009e5760003560e01c80635c60da1b116100665780635c60da1b146101725780636ac1e01f14610190578063c7f758a8146101c0578063d2f7265a146101f0578063f80621971461020e5761009e565b8063013cf08b146100a35780630d658301146100d357806319ff1d21146101035780632ab09d14146101215780633b23c36d1461013f575b600080fd5b6100bd60048036038101906100b89190610cad565b61022c565b6040516100ca9190610d1b565b60405180910390f35b6100ed60048036038101906100e89190610d62565b61025f565b6040516100fa9190610ea0565b60405180910390f35b61010b610400565b6040516101189190610f0c565b60405180910390f35b61012961043d565b6040516101369190610f3d565b60405180910390f35b61015960048036038101906101549190610d62565b610443565b6040516101699493929190610f58565b60405180910390f35b61017a61053b565b6040516101879190610d1b565b60405180910390f35b6101aa60048036038101906101a591906110d9565b61055f565b6040516101b79190610d1b565b60405180910390f35b6101da60048036038101906101d59190610cad565b610839565b6040516101e79190610d1b565b60405180910390f35b6101f8610876565b6040516102059190610d1b565b60405180910390f35b61021661089c565b604051610223919061126d565b60405180910390f35b60026020528060005260406000206000915054906101000a900473ffffffffffffffffffffffffffffffffffffffff1681565b610267610c0f565b600360008373ffffffffffffffffffffffffffffffffffffffff1673ffffffffffffffffffffffffffffffffffffffff1681526020019081526020016000206040518060800160405290816000820160009054906101000a900473ffffffffffffffffffffffffffffffffffffffff1673ffffffffffffffffffffffffffffffffffffffff1673ffffffffffffffffffffffffffffffffffffffff168152602001600182018054610317906112be565b80601f0160208091040260200160405190810160405280929190818152602001828054610343906112be565b80156103905780601f1061036557610100808354040283529160200191610390565b820191906000526020600020905b81548152906001019060200180831161037357829003601f168201915b50505050508152602001600282015481526020016003820160009054906101000a900473ffffffffffffffffffffffffffffffffffffffff1673ffffffffffffffffffffffffffffffffffffffff1673ffffffffffffffffffffffffffffffffffffffff16815250509050919050565b60606040518060400160405280600581526020017f68656c6c6f000000000000000000000000000000000000000000000000000000815250905090565b60045481565b60036020528060005260406000206000915090508060000160009054906101000a900473ffffffffffffffffffffffffffffffffffffffff169080600101805461048c906112be565b80601f01602080910402602001604051908101604052809291908181526020018280546104b8906112be565b80156105055780601f106104da57610100808354040283529160200191610505565b820191906000526020600020905b8154815290600101906020018083116104e857829003601f168201915b5050505050908060020154908060030160009054906101000a900473ffffffffffffffffffffffffffffffffffffffff16905084565b60008054906101000a900473ffffffffffffffffffffffffffffffffffffffff1681565b60008061058b60008054906101000a900473ffffffffffffffffffffffffffffffffffffffff16610b03565b90508073ffffffffffffffffffffffffffffffffffffffff16637a5f022a338787600160009054906101000a900473ffffffffffffffffffffffffffffffffffffffff16886040518663ffffffff1660e01b81526004016105f09594939291906112ef565b600060405180830381600087803b15801561060a57600080fd5b505af115801561061e573d6000803e3d6000fd5b505050508060026000600454815260200190815260200160002060006101000a81548173ffffffffffffffffffffffffffffffffffffffff021916908373ffffffffffffffffffffffffffffffffffffffff16021790555060405180608001604052803373ffffffffffffffffffffffffffffffffffffffff1681526020018681526020018581526020018473ffffffffffffffffffffffffffffffffffffffff16815250600360008373ffffffffffffffffffffffffffffffffffffffff1673ffffffffffffffffffffffffffffffffffffffff16815260200190815260200160002060008201518160000160006101000a81548173ffffffffffffffffffffffffffffffffffffffff021916908373ffffffffffffffffffffffffffffffffffffffff160217905550602082015181600101908161075e91906114f5565b506040820151816002015560608201518160030160006101000a81548173ffffffffffffffffffffffffffffffffffffffff021916908373ffffffffffffffffffffffffffffffffffffffff1602179055509050508273ffffffffffffffffffffffffffffffffffffffff168173ffffffffffffffffffffffffffffffffffffffff167f7e5361edd70248cf0a9e88723fe06b63fa8cad3a111b246c13fe2be1c5318f4560046000815480929190610815906115f6565b919050556040516108269190610f3d565b60405180910390a3809150509392505050565b60006002600083815260200190815260200160002060009054906101000a900473ffffffffffffffffffffffffffffffffffffffff169050919050565b600160009054906101000a900473ffffffffffffffffffffffffffffffffffffffff1681565b6060600060045467ffffffffffffffff8111156108bc576108bb610fae565b5b6040519080825280602002602001820160405280156108f557816020015b6108e2610c0f565b8152602001906001900390816108da5790505b50905060005b600454811015610afb5760006002600083815260200190815260200160002060009054906101000a900473ffffffffffffffffffffffffffffffffffffffff169050600360008273ffffffffffffffffffffffffffffffffffffffff1673ffffffffffffffffffffffffffffffffffffffff1681526020019081526020016000206040518060800160405290816000820160009054906101000a900473ffffffffffffffffffffffffffffffffffffffff1673ffffffffffffffffffffffffffffffffffffffff1673ffffffffffffffffffffffffffffffffffffffff1681526020016001820180546109ed906112be565b80601f0160208091040260200160405190810160405280929190818152602001828054610a19906112be565b8015610a665780601f10610a3b57610100808354040283529160200191610a66565b820191906000526020600020905b815481529060010190602001808311610a4957829003601f168201915b50505050508152602001600282015481526020016003820160009054906101000a900473ffffffffffffffffffffffffffffffffffffffff1673ffffffffffffffffffffffffffffffffffffffff1673ffffffffffffffffffffffffffffffffffffffff1681525050838381518110610ae257610ae161163e565b5b60200260200101819052505080806001019150506108fb565b508091505090565b6000610b10826000610b17565b9050919050565b600081471015610b605747826040517fcf479181000000000000000000000000000000000000000000000000000000008152600401610b5792919061166d565b60405180910390fd5b763d602d80600a3d3981f3363d3d373d3d3d363d730000008360601b60e81c176000526e5af43d82803e903d91602b57fd5bf38360781b176020526037600983f09050600073ffffffffffffffffffffffffffffffffffffffff168173ffffffffffffffffffffffffffffffffffffffff1603610c09576040517fb06ebf3d00000000000000000000000000000000000000000000000000000000815260040160405180910390fd5b92915050565b6040518060800160405280600073ffffffffffffffffffffffffffffffffffffffff1681526020016060815260200160008152602001600073ffffffffffffffffffffffffffffffffffffffff1681525090565b6000604051905090565b600080fd5b600080fd5b6000819050919050565b610c8a81610c77565b8114610c9557600080fd5b50565b600081359050610ca781610c81565b92915050565b600060208284031215610cc357610cc2610c6d565b5b6000610cd184828501610c98565b91505092915050565b600073ffffffffffffffffffffffffffffffffffffffff82169050919050565b6000610d0582610cda565b9050919050565b610d1581610cfa565b82525050565b6000602082019050610d306000830184610d0c565b92915050565b610d3f81610cfa565b8114610d4a57600080fd5b50565b600081359050610d5c81610d36565b92915050565b600060208284031215610d7857610d77610c6d565b5b6000610d8684828501610d4d565b91505092915050565b610d9881610cfa565b82525050565b600081519050919050565b600082825260208201905092915050565b60005b83811015610dd8578082015181840152602081019050610dbd565b60008484015250505050565b6000601f19601f8301169050919050565b6000610e0082610d9e565b610e0a8185610da9565b9350610e1a818560208601610dba565b610e2381610de4565b840191505092915050565b610e3781610c77565b82525050565b6000608083016000830151610e556000860182610d8f565b5060208301518482036020860152610e6d8282610df5565b9150506040830151610e826040860182610e2e565b506060830151610e956060860182610d8f565b508091505092915050565b60006020820190508181036000830152610eba8184610e3d565b905092915050565b600082825260208201905092915050565b6000610ede82610d9e565b610ee88185610ec2565b9350610ef8818560208601610dba565b610f0181610de4565b840191505092915050565b60006020820190508181036000830152610f268184610ed3565b905092915050565b610f3781610c77565b82525050565b6000602082019050610f526000830184610f2e565b92915050565b6000608082019050610f6d6000830187610d0c565b8181036020830152610f7f8186610ed3565b9050610f8e6040830185610f2e565b610f9b6060830184610d0c565b95945050505050565b600080fd5b600080fd5b7f4e487b7100000000000000000000000000000000000000000000000000000000600052604160045260246000fd5b610fe682610de4565b810181811067ffffffffffffffff8211171561100557611004610fae565b5b80604052505050565b6000611018610c63565b90506110248282610fdd565b919050565b600067ffffffffffffffff82111561104457611043610fae565b5b61104d82610de4565b9050602081019050919050565b82818337600083830152505050565b600061107c61107784611029565b61100e565b90508281526020810184848401111561109857611097610fa9565b5b6110a384828561105a565b509392505050565b600082601f8301126110c0576110bf610fa4565b5b81356110d0848260208601611069565b91505092915050565b6000806000606084860312156110f2576110f1610c6d565b5b600084013567ffffffffffffffff8111156111105761110f610c72565b5b61111c868287016110ab565b935050602061112d86828701610c98565b925050604061113e86828701610d4d565b9150509250925092565b600081519050919050565b600082825260208201905092915050565b6000819050602082019050919050565b600060808301600083015161118c6000860182610d8f565b50602083015184820360208601526111a48282610df5565b91505060408301516111b96040860182610e2e565b5060608301516111cc6060860182610d8f565b508091505092915050565b60006111e38383611174565b905092915050565b6000602082019050919050565b600061120382611148565b61120d8185611153565b93508360208202850161121f85611164565b8060005b8581101561125b578484038952815161123c85826111d7565b9450611247836111eb565b925060208a01995050600181019050611223565b50829750879550505050505092915050565b6000602082019050818103600083015261128781846111f8565b905092915050565b7f4e487b7100000000000000000000000000000000000000000000000000000000600052602260045260246000fd5b600060028204905060018216806112d657607f821691505b6020821081036112e9576112e861128f565b5b50919050565b600060a0820190506113046000830188610d0c565b81810360208301526113168187610ed3565b90506113256040830186610f2e565b6113326060830185610d0c565b61133f6080830184610d0c565b9695505050505050565b60008190508160005260206000209050919050565b60006020601f8301049050919050565b600082821b905092915050565b6000600883026113ab7fffffffffffffffffffffffffffffffffffffffffffffffffffffffffffffffff8261136e565b6113b5868361136e565b95508019841693508086168417925050509392505050565b6000819050919050565b60006113f26113ed6113e884610c77565b6113cd565b610c77565b9050919050565b6000819050919050565b61140c836113d7565b611420611418826113f9565b84845461137b565b825550505050565b600090565b611435611428565b611440818484611403565b505050565b5b818110156114645761145960008261142d565b600181019050611446565b5050565b601f8211156114a95761147a81611349565b6114838461135e565b81016020851015611492578190505b6114a661149e8561135e565b830182611445565b50505b505050565b600082821c905092915050565b60006114cc600019846008026114ae565b1980831691505092915050565b60006114e583836114bb565b9150826002028217905092915050565b6114fe82610d9e565b67ffffffffffffffff81111561151757611516610fae565b5b61152182546112be565b61152c828285611468565b600060209050601f83116001811461155f576000841561154d578287015190505b61155785826114d9565b8655506115bf565b601f19841661156d86611349565b60005b8281101561159557848901518255600182019150602085019450602081019050611570565b868310156115b257848901516115ae601f8916826114bb565b8355505b6001600288020188555050505b505050505050565b7f4e487b7100000000000000000000000000000000000000000000000000000000600052601160045260246000fd5b600061160182610c77565b91507fffffffffffffffffffffffffffffffffffffffffffffffffffffffffffffffff8203611633576116326115c7565b5b600182019050919050565b7f4e487b7100000000000000000000000000000000000000000000000000000000600052603260045260246000fd5b60006040820190506116826000830185610f2e565b61168f6020830184610f2e565b939250505056fea26469706673582212206920ba69b5d8df314d1baf6434b892df983d9e6b09ba624cb2defb1e420904e864736f6c634300081c0033",
  "linkReferences": {},
  "deployedLinkReferences": {}
}