{
  "_format": "hh-sol-artifact-1",
  "contractName": "Exchange",
  "sourceName": "contracts/futarchy/Exchange.sol",
  "abi": [
    {
      "anonymous": false,
      "inputs": [
        {
          "indexed": true,
          "internalType": "address",
          "name": "user",
          "type": "address"
        },
        {
          "indexed": false,
          "internalType": "uint256",
          "name": "yesAmount",
          "type": "uint256"
        },
        {
          "indexed": false,
          "internalType": "uint256",
          "name": "noAmount",
          "type": "uint256"
        }
      ],
      "name": "LiquidityAdded",
      "type": "event"
    },
    {
      "anonymous": false,
      "inputs": [
        {
          "indexed": true,
          "internalType": "address",
          "name": "user",
          "type": "address"
        },
        {
          "indexed": false,
          "internalType": "uint256",
          "name": "yesAmount",
          "type": "uint256"
        },
        {
          "indexed": false,
          "internalType": "uint256",
          "name": "noAmount",
          "type": "uint256"
        }
      ],
      "name": "LiquidityRemoved",
      "type": "event"
    },
    {
      "anonymous": false,
      "inputs": [
        {
          "indexed": true,
          "internalType": "address",
          "name": "user",
          "type": "address"
        },
        {
          "indexed": true,
          "internalType": "address",
          "name": "proposal",
          "type": "address"
        },
        {
          "indexed": false,
          "internalType": "uint256",
          "name": "amount",
          "type": "uint256"
        }
      ],
      "name": "Merged",
      "type": "event"
    },
    {
      "anonymous": false,
      "inputs": [
        {
          "indexed": true,
          "internalType": "address",
          "name": "user",
          "type": "address"
        },
        {
          "indexed": true,
          "internalType": "address",
          "name": "proposal",
          "type": "address"
        },
        {
          "indexed": false,
          "internalType": "uint256",
          "name": "amount",
          "type": "uint256"
        },
        {
          "indexed": false,
          "internalType": "uint256",
          "name": "collateralAmount",
          "type": "uint256"
        },
        {
          "indexed": false,
          "internalType": "bool",
          "name": "isYes",
          "type": "bool"
        }
      ],
      "name": "Redeemed",
      "type": "event"
    },
    {
      "anonymous": false,
      "inputs": [
        {
          "indexed": true,
          "internalType": "address",
          "name": "user",
          "type": "address"
        },
        {
          "indexed": false,
          "internalType": "uint256",
          "name": "inputAmount",
          "type": "uint256"
        },
        {
          "indexed": false,
          "internalType": "uint256",
          "name": "outputAmount",
          "type": "uint256"
        },
        {
          "indexed": false,
          "internalType": "bool",
          "name": "isYesToNo",
          "type": "bool"
        }
      ],
      "name": "Swapped",
      "type": "event"
    },
    {
      "anonymous": false,
      "inputs": [
        {
          "indexed": true,
          "internalType": "address",
          "name": "user",
          "type": "address"
        },
        {
          "indexed": true,
          "internalType": "address",
          "name": "proposal",
          "type": "address"
        },
        {
          "indexed": false,
          "internalType": "uint256",
          "name": "collateralAmount",
          "type": "uint256"
        },
        {
          "indexed": false,
          "internalType": "bool",
          "name": "isYes",
          "type": "bool"
        },
        {
          "indexed": false,
          "internalType": "uint256",
          "name": "mintedAmount",
          "type": "uint256"
        },
        {
          "indexed": false,
          "internalType": "uint256",
          "name": "burnedAmount",
          "type": "uint256"
        }
      ],
      "name": "Voted",
      "type": "event"
    },
    {
      "inputs": [],
      "name": "FEE_PERCENTAGE",
      "outputs": [
        {
          "internalType": "uint256",
          "name": "",
          "type": "uint256"
        }
      ],
      "stateMutability": "view",
      "type": "function"
    },
    {
      "inputs": [],
      "name": "SCALE",
      "outputs": [
        {
          "internalType": "uint256",
          "name": "",
          "type": "uint256"
        }
      ],
      "stateMutability": "view",
      "type": "function"
    },
    {
      "inputs": [
        {
          "internalType": "address",
          "name": "proposal",
          "type": "address"
        },
        {
          "internalType": "uint256",
          "name": "collateralAmount",
          "type": "uint256"
        }
      ],
      "name": "addLiquidity",
      "outputs": [],
      "stateMutability": "nonpayable",
      "type": "function"
    },
    {
      "inputs": [
        {
          "internalType": "uint256",
          "name": "numerator",
          "type": "uint256"
        },
        {
          "internalType": "uint256",
          "name": "denominator",
          "type": "uint256"
        }
      ],
      "name": "getRate",
      "outputs": [
        {
          "internalType": "uint256",
          "name": "",
          "type": "uint256"
        }
      ],
      "stateMutability": "pure",
      "type": "function"
    },
    {
      "inputs": [
        {
          "internalType": "address",
          "name": "proposal",
          "type": "address"
        },
        {
          "internalType": "uint256",
          "name": "amount",
          "type": "uint256"
        },
        {
          "internalType": "bool",
          "name": "isYes",
          "type": "bool"
        }
      ],
      "name": "redeem",
      "outputs": [],
      "stateMutability": "nonpayable",
      "type": "function"
    },
    {
      "inputs": [
        {
          "internalType": "address",
          "name": "proposal",
          "type": "address"
        },
        {
          "internalType": "uint256",
          "name": "lpAmount",
          "type": "uint256"
        }
      ],
      "name": "removeLiquidity",
      "outputs": [],
      "stateMutability": "nonpayable",
      "type": "function"
    },
    {
      "inputs": [
        {
          "internalType": "address",
          "name": "proposal",
          "type": "address"
        },
        {
          "internalType": "uint256",
          "name": "collateralAmount",
          "type": "uint256"
        },
        {
          "internalType": "bool",
          "name": "isYes",
          "type": "bool"
        }
      ],
      "name": "vote",
      "outputs": [],
      "stateMutability": "nonpayable",
      "type": "function"
    }
  ],
  "bytecode": "0x6080604052348015600f57600080fd5b506123e68061001f6000396000f3fe608060405234801561001057600080fd5b506004361061007c5760003560e01c8063566887001161005b57806356688700146100eb578063a201ccf614610107578063e1a0257714610123578063eced55261461013f5761007c565b80620b46f8146100815780630d70e7e31461009f5780634458a14c146100cf575b600080fd5b61008961015d565b60405161009691906119d5565b60405180910390f35b6100b960048036038101906100b49190611a21565b610162565b6040516100c691906119d5565b60405180910390f35b6100e960048036038101906100e49190611af7565b61018b565b005b61010560048036038101906101009190611b4a565b6109e9565b005b610121600480360381019061011c9190611b4a565b610d36565b005b61013d60048036038101906101389190611af7565b611209565b005b610147611732565b60405161015491906119d5565b60405180910390f35b600081565b600081670de0b6b3a7640000846101799190611bb9565b6101839190611c2a565b905092915050565b60008390508073ffffffffffffffffffffffffffffffffffffffff16631338f4936040518163ffffffff1660e01b8152600401602060405180830381865afa1580156101db573d6000803e3d6000fd5b505050506040513d601f19601f820116820180604052508101906101ff9190611c70565b1561023f576040517f08c379a000000000000000000000000000000000000000000000000000000000815260040161023690611cfa565b60405180910390fd5b60008173ffffffffffffffffffffffffffffffffffffffff1663b2016bd46040518163ffffffff1660e01b8152600401602060405180830381865afa15801561028c573d6000803e3d6000fd5b505050506040513d601f19601f820116820180604052508101906102b09190611d58565b90506000808373ffffffffffffffffffffffffffffffffffffffff16636b5d06bc6040518163ffffffff1660e01b81526004016040805180830381865afa1580156102ff573d6000803e3d6000fd5b505050506040513d601f19601f820116820180604052508101906103239190611d9a565b915091506000821180156103375750600081115b610376576040517f08c379a000000000000000000000000000000000000000000000000000000000815260040161036d90611e26565b60405180910390fd5b6000808573ffffffffffffffffffffffffffffffffffffffff1663abd3f612336040518263ffffffff1660e01b81526004016103b29190611e55565b606060405180830381865afa1580156103cf573d6000803e3d6000fd5b505050506040513d601f19601f820116820180604052508101906103f39190611e70565b925092505086610406578781101561040b565b878210155b61044a576040517f08c379a000000000000000000000000000000000000000000000000000000000815260040161044190611f0f565b60405180910390fd5b8680156104575750818810155b156104645781975061047c565b861580156104725750808810155b1561047b578097505b5b60008060008873ffffffffffffffffffffffffffffffffffffffff16631338f4936040518163ffffffff1660e01b8152600401602060405180830381865afa1580156104cc573d6000803e3d6000fd5b505050506040513d601f19601f820116820180604052508101906104f09190611c70565b6105115761050087878d8d61173e565b8095508193508294505050506105c9565b8915158973ffffffffffffffffffffffffffffffffffffffff1663653721476040518163ffffffff1660e01b8152600401602060405180830381865afa15801561055f573d6000803e3d6000fd5b505050506040513d601f19601f820116820180604052508101906105839190611c70565b1515146105c5576040517f08c379a00000000000000000000000000000000000000000000000000000000081526004016105bc90611f7b565b60405180910390fd5b8a92505b8873ffffffffffffffffffffffffffffffffffffffff1663f5298aca338c61065f578b73ffffffffffffffffffffffffffffffffffffffff16630d4834426040518163ffffffff1660e01b8152600401602060405180830381865afa158015610636573d6000803e3d6000fd5b505050506040513d601f19601f8201168201806040525081019061065a9190611f9b565b6106cf565b8b73ffffffffffffffffffffffffffffffffffffffff1663b2449d656040518163ffffffff1660e01b8152600401602060405180830381865afa1580156106aa573d6000803e3d6000fd5b505050506040513d601f19601f820116820180604052508101906106ce9190611f9b565b5b8e6040518463ffffffff1660e01b81526004016106ee93929190611fc8565b600060405180830381600087803b15801561070857600080fd5b505af115801561071c573d6000803e3d6000fd5b505050508873ffffffffffffffffffffffffffffffffffffffff16638736f37b846040518263ffffffff1660e01b815260040161075991906119d5565b600060405180830381600087803b15801561077357600080fd5b505af1158015610787573d6000803e3d6000fd5b505050508773ffffffffffffffffffffffffffffffffffffffff166323b872dd8d33866040518463ffffffff1660e01b81526004016107c893929190611fff565b6020604051808303816000875af11580156107e7573d6000803e3d6000fd5b505050506040513d601f19601f8201168201806040525081019061080b9190611c70565b61084a576040517f08c379a000000000000000000000000000000000000000000000000000000000815260040161084190612082565b60405180910390fd5b8873ffffffffffffffffffffffffffffffffffffffff16631338f4936040518163ffffffff1660e01b8152600401602060405180830381865afa158015610895573d6000803e3d6000fd5b505050506040513d601f19601f820116820180604052508101906108b99190611c70565b610972578873ffffffffffffffffffffffffffffffffffffffff16630ab1422a8b6108ef5788846108ea91906120a2565b6108fc565b87836108fb91906120a2565b5b8c61091257838961090d91906120a2565b61091f565b848a61091e91906120a2565b5b8d156040518463ffffffff1660e01b815260040161093f939291906120e5565b600060405180830381600087803b15801561095957600080fd5b505af115801561096d573d6000803e3d6000fd5b505050505b8b73ffffffffffffffffffffffffffffffffffffffff163373ffffffffffffffffffffffffffffffffffffffff167fc82742c268f0536f7e66495a5b707a6e612b3749aa3418b98a4d892bdf5253098d868e6040516109d3939291906120e5565b60405180910390a3505050505050505050505050565b60006002826109f89190611c2a565b90506000600283610a099190611c2a565b90506000849050600083118015610a205750600082115b610a5f576040517f08c379a0000000000000000000000000000000000000000000000000000000008152600401610a5690612168565b60405180910390fd5b60008173ffffffffffffffffffffffffffffffffffffffff1663b2016bd46040518163ffffffff1660e01b8152600401602060405180830381865afa158015610aac573d6000803e3d6000fd5b505050506040513d601f19601f82011682018060405250810190610ad0919061219d565b90508073ffffffffffffffffffffffffffffffffffffffff166323b872dd3388886040518463ffffffff1660e01b8152600401610b0f93929190611fff565b6020604051808303816000875af1158015610b2e573d6000803e3d6000fd5b505050506040513d601f19601f82011682018060405250810190610b529190611c70565b610b91576040517f08c379a0000000000000000000000000000000000000000000000000000000008152600401610b8890612216565b60405180910390fd5b8173ffffffffffffffffffffffffffffffffffffffff16630ab1422a858560016040518463ffffffff1660e01b8152600401610bcf939291906120e5565b600060405180830381600087803b158015610be957600080fd5b505af1158015610bfd573d6000803e3d6000fd5b505050508173ffffffffffffffffffffffffffffffffffffffff1663156e29f6338473ffffffffffffffffffffffffffffffffffffffff1663b8f6c09c6040518163ffffffff1660e01b8152600401602060405180830381865afa158015610c69573d6000803e3d6000fd5b505050506040513d601f19601f82011682018060405250810190610c8d9190611f9b565b886040518463ffffffff1660e01b8152600401610cac93929190611fc8565b600060405180830381600087803b158015610cc657600080fd5b505af1158015610cda573d6000803e3d6000fd5b505050503373ffffffffffffffffffffffffffffffffffffffff167fac1d76749e5447b7b16f5ab61447e1bd502f3bb4807af3b28e620d1700a6ee458585604051610d26929190612236565b60405180910390a2505050505050565b60008290506000808273ffffffffffffffffffffffffffffffffffffffff16636b5d06bc6040518163ffffffff1660e01b81526004016040805180830381865afa158015610d88573d6000803e3d6000fd5b505050506040513d601f19601f82011682018060405250810190610dac9190611d9a565b9150915060008373ffffffffffffffffffffffffffffffffffffffff166345656bb06040518163ffffffff1660e01b8152600401602060405180830381865afa158015610dfd573d6000803e3d6000fd5b505050506040513d601f19601f82011682018060405250810190610e219190611f9b565b9050600085118015610e335750808511155b610e72576040517f08c379a0000000000000000000000000000000000000000000000000000000008152600401610e69906122ab565b60405180910390fd5b6000818685610e819190611bb9565b610e8b9190611c2a565b90506000828785610e9c9190611bb9565b610ea69190611c2a565b90508573ffffffffffffffffffffffffffffffffffffffff1663f5298aca338873ffffffffffffffffffffffffffffffffffffffff1663b8f6c09c6040518163ffffffff1660e01b8152600401602060405180830381865afa158015610f10573d6000803e3d6000fd5b505050506040513d601f19601f82011682018060405250810190610f349190611f9b565b8a6040518463ffffffff1660e01b8152600401610f5393929190611fc8565b600060405180830381600087803b158015610f6d57600080fd5b505af1158015610f81573d6000803e3d6000fd5b505050508573ffffffffffffffffffffffffffffffffffffffff1663156e29f6338873ffffffffffffffffffffffffffffffffffffffff1663b2449d656040518163ffffffff1660e01b8152600401602060405180830381865afa158015610fed573d6000803e3d6000fd5b505050506040513d601f19601f820116820180604052508101906110119190611f9b565b856040518463ffffffff1660e01b815260040161103093929190611fc8565b600060405180830381600087803b15801561104a57600080fd5b505af115801561105e573d6000803e3d6000fd5b505050508573ffffffffffffffffffffffffffffffffffffffff1663156e29f6338873ffffffffffffffffffffffffffffffffffffffff16630d4834426040518163ffffffff1660e01b8152600401602060405180830381865afa1580156110ca573d6000803e3d6000fd5b505050506040513d601f19601f820116820180604052508101906110ee9190611f9b565b846040518463ffffffff1660e01b815260040161110d93929190611fc8565b600060405180830381600087803b15801561112757600080fd5b505af115801561113b573d6000803e3d6000fd5b505050508573ffffffffffffffffffffffffffffffffffffffff16630ab1422a838360016040518463ffffffff1660e01b815260040161117d939291906120e5565b600060405180830381600087803b15801561119757600080fd5b505af11580156111ab573d6000803e3d6000fd5b505050503373ffffffffffffffffffffffffffffffffffffffff167f96cd817c6329656790ef8fba7675405193677d39619571282f5e21f3a98cd05983836040516111f7929190612236565b60405180910390a25050505050505050565b6000821161124c576040517f08c379a000000000000000000000000000000000000000000000000000000000815260040161124390612317565b60405180910390fd5b600083905060008173ffffffffffffffffffffffffffffffffffffffff1663b2016bd46040518163ffffffff1660e01b8152600401602060405180830381865afa15801561129e573d6000803e3d6000fd5b505050506040513d601f19601f820116820180604052508101906112c29190611d58565b90508073ffffffffffffffffffffffffffffffffffffffff166323b872dd3387876040518463ffffffff1660e01b815260040161130193929190611fff565b6020604051808303816000875af1158015611320573d6000803e3d6000fd5b505050506040513d601f19601f820116820180604052508101906113449190611c70565b611383576040517f08c379a000000000000000000000000000000000000000000000000000000000815260040161137a90612082565b60405180910390fd5b6000806113918487876117e8565b91509150600085611410578473ffffffffffffffffffffffffffffffffffffffff16630d4834426040518163ffffffff1660e01b8152600401602060405180830381865afa1580156113e7573d6000803e3d6000fd5b505050506040513d601f19601f8201168201806040525081019061140b9190611f9b565b611480565b8473ffffffffffffffffffffffffffffffffffffffff1663b2449d656040518163ffffffff1660e01b8152600401602060405180830381865afa15801561145b573d6000803e3d6000fd5b505050506040513d601f19601f8201168201806040525081019061147f9190611f9b565b5b90506000866114fd578573ffffffffffffffffffffffffffffffffffffffff1663b2449d656040518163ffffffff1660e01b8152600401602060405180830381865afa1580156114d4573d6000803e3d6000fd5b505050506040513d601f19601f820116820180604052508101906114f89190611f9b565b61156d565b8573ffffffffffffffffffffffffffffffffffffffff16630d4834426040518163ffffffff1660e01b8152600401602060405180830381865afa158015611548573d6000803e3d6000fd5b505050506040513d601f19601f8201168201806040525081019061156c9190611f9b565b5b90508573ffffffffffffffffffffffffffffffffffffffff1663156e29f63384876040518463ffffffff1660e01b81526004016115ac93929190611fc8565b600060405180830381600087803b1580156115c657600080fd5b505af11580156115da573d6000803e3d6000fd5b505050508573ffffffffffffffffffffffffffffffffffffffff1663f5298aca8a83866040518463ffffffff1660e01b815260040161161b93929190611fc8565b600060405180830381600087803b15801561163557600080fd5b505af1158015611649573d6000803e3d6000fd5b505050508573ffffffffffffffffffffffffffffffffffffffff16630ab1422a85858a6040518463ffffffff1660e01b815260040161168a939291906120e5565b600060405180830381600087803b1580156116a457600080fd5b505af11580156116b8573d6000803e3d6000fd5b505050508873ffffffffffffffffffffffffffffffffffffffff163373ffffffffffffffffffffffffffffffffffffffff167fff57862a309e0ffa7db1a1b12295b8e5eb07f74eac3c99881eb6b3d618e80ea28a8a888860405161171f9493929190612337565b60405180910390a3505050505050505050565b670de0b6b3a764000081565b60008060008086886117509190611bb9565b90506000851561178357868903945084828161176f5761176e611bfb565b5b04935061177c8989610162565b90506117bb565b868803935083828161179857611797611bfb565b5b049450670de0b6b3a76400006117ae898b610162565b6117b89190611c2a565b90505b670de0b6b3a764000081886117d09190611bb9565b6117da9190611c2a565b925050509450945094915050565b6000806000808673ffffffffffffffffffffffffffffffffffffffff16636b5d06bc6040518163ffffffff1660e01b81526004016040805180830381865afa158015611838573d6000803e3d6000fd5b505050506040513d601f19601f8201168201806040525081019061185c9190611d9a565b915091506000821180156118705750600081115b6118af576040517f08c379a00000000000000000000000000000000000000000000000000000000081526004016118a690611e26565b60405180910390fd5b600081836118bd9190611bb9565b90506000806000808915611919576118d58688610162565b9350670de0b6b3a7640000848c6118ec9190611bb9565b6118f69190611c2a565b92508286611904919061237c565b905080856119129190611c2a565b9150611963565b6119238787610162565b9350670de0b6b3a7640000848c61193a9190611bb9565b6119449190611c2a565b92508287611952919061237c565b915081856119609190611c2a565b90505b8961197957868261197491906120a2565b611986565b858161198591906120a2565b5b98508961199e57808661199991906120a2565b6119ab565b81876119aa91906120a2565b5b975050505050505050935093915050565b6000819050919050565b6119cf816119bc565b82525050565b60006020820190506119ea60008301846119c6565b92915050565b600080fd5b6119fe816119bc565b8114611a0957600080fd5b50565b600081359050611a1b816119f5565b92915050565b60008060408385031215611a3857611a376119f0565b5b6000611a4685828601611a0c565b9250506020611a5785828601611a0c565b9150509250929050565b600073ffffffffffffffffffffffffffffffffffffffff82169050919050565b6000611a8c82611a61565b9050919050565b611a9c81611a81565b8114611aa757600080fd5b50565b600081359050611ab981611a93565b92915050565b60008115159050919050565b611ad481611abf565b8114611adf57600080fd5b50565b600081359050611af181611acb565b92915050565b600080600060608486031215611b1057611b0f6119f0565b5b6000611b1e86828701611aaa565b9350506020611b2f86828701611a0c565b9250506040611b4086828701611ae2565b9150509250925092565b60008060408385031215611b6157611b606119f0565b5b6000611b6f85828601611aaa565b9250506020611b8085828601611a0c565b9150509250929050565b7f4e487b7100000000000000000000000000000000000000000000000000000000600052601160045260246000fd5b6000611bc4826119bc565b9150611bcf836119bc565b9250828202611bdd816119bc565b91508282048414831517611bf457611bf3611b8a565b5b5092915050565b7f4e487b7100000000000000000000000000000000000000000000000000000000600052601260045260246000fd5b6000611c35826119bc565b9150611c40836119bc565b925082611c5057611c4f611bfb565b5b828204905092915050565b600081519050611c6a81611acb565b92915050565b600060208284031215611c8657611c856119f0565b5b6000611c9484828501611c5b565b91505092915050565b600082825260208201905092915050565b7f4d61726b657420616c7265616479207265736f6c766564000000000000000000600082015250565b6000611ce4601783611c9d565b9150611cef82611cae565b602082019050919050565b60006020820190508181036000830152611d1381611cd7565b9050919050565b6000611d2582611a81565b9050919050565b611d3581611d1a565b8114611d4057600080fd5b50565b600081519050611d5281611d2c565b92915050565b600060208284031215611d6e57611d6d6119f0565b5b6000611d7c84828501611d43565b91505092915050565b600081519050611d94816119f5565b92915050565b60008060408385031215611db157611db06119f0565b5b6000611dbf85828601611d85565b9250506020611dd085828601611d85565b9150509250929050565b7f496e76616c6964206d61726b6574207265736572766573000000000000000000600082015250565b6000611e10601783611c9d565b9150611e1b82611dda565b602082019050919050565b60006020820190508181036000830152611e3f81611e03565b9050919050565b611e4f81611a81565b82525050565b6000602082019050611e6a6000830184611e46565b92915050565b600080600060608486031215611e8957611e886119f0565b5b6000611e9786828701611d85565b9350506020611ea886828701611d85565b9250506040611eb986828701611d85565b9150509250925092565b7f496e73756666696369656e7420746f6b656e2062616c616e6365000000000000600082015250565b6000611ef9601a83611c9d565b9150611f0482611ec3565b602082019050919050565b60006020820190508181036000830152611f2881611eec565b9050919050565b7f43616e6e6f742072656465656d206c6f73696e6720746f6b656e730000000000600082015250565b6000611f65601b83611c9d565b9150611f7082611f2f565b602082019050919050565b60006020820190508181036000830152611f9481611f58565b9050919050565b600060208284031215611fb157611fb06119f0565b5b6000611fbf84828501611d85565b91505092915050565b6000606082019050611fdd6000830186611e46565b611fea60208301856119c6565b611ff760408301846119c6565b949350505050565b60006060820190506120146000830186611e46565b6120216020830185611e46565b61202e60408301846119c6565b949350505050565b7f436f6c6c61746572616c207472616e73666572206661696c6564000000000000600082015250565b600061206c601a83611c9d565b915061207782612036565b602082019050919050565b6000602082019050818103600083015261209b8161205f565b9050919050565b60006120ad826119bc565b91506120b8836119bc565b92508282039050818111156120d0576120cf611b8a565b5b92915050565b6120df81611abf565b82525050565b60006060820190506120fa60008301866119c6565b61210760208301856119c6565b61211460408301846120d6565b949350505050565b7f496e76616c696420616d6f756e74730000000000000000000000000000000000600082015250565b6000612152600f83611c9d565b915061215d8261211c565b602082019050919050565b6000602082019050818103600083015261218181612145565b9050919050565b60008151905061219781611a93565b92915050565b6000602082840312156121b3576121b26119f0565b5b60006121c184828501612188565b91505092915050565b7f5472616e73666572206661696c65640000000000000000000000000000000000600082015250565b6000612200600f83611c9d565b915061220b826121ca565b602082019050919050565b6000602082019050818103600083015261222f816121f3565b9050919050565b600060408201905061224b60008301856119c6565b61225860208301846119c6565b9392505050565b7f496e76616c6964204c5020616d6f756e74000000000000000000000000000000600082015250565b6000612295601183611c9d565b91506122a08261225f565b602082019050919050565b600060208201905081810360008301526122c481612288565b9050919050565b7f496e76616c696420696e70757420616d6f756e74000000000000000000000000600082015250565b6000612301601483611c9d565b915061230c826122cb565b602082019050919050565b60006020820190508181036000830152612330816122f4565b9050919050565b600060808201905061234c60008301876119c6565b61235960208301866120d6565b61236660408301856119c6565b61237360608301846119c6565b95945050505050565b6000612387826119bc565b9150612392836119bc565b92508282019050808211156123aa576123a9611b8a565b5b9291505056fea26469706673582212202724941fd45338bf7498ab23e88868cc394037aebb2c764c156b54a310a27d5764736f6c634300081c0033",
  "linkReferences": {},
  "deployedLinkReferences": {}
}