{
  "_format": "hh-sol-artifact-1",
  "contractName": "ProposalFactory",
  "sourceName": "contracts/futarchy/factory/ProposalFactory.sol",
  "abi": [
    {
      "inputs": [
        {
          "internalType": "address",
          "name": "_implementation",
          "type": "address"
        },
        {
          "internalType": "address",
          "name": "_exchange",
          "type": "address"
        }
      ],
      "stateMutability": "nonpayable",
      "type": "constructor"
    },
    {
      "inputs": [],
      "name": "FailedDeployment",
      "type": "error"
    },
    {
      "inputs": [
        {
          "internalType": "uint256",
          "name": "balance",
          "type": "uint256"
        },
        {
          "internalType": "uint256",
          "name": "needed",
          "type": "uint256"
        }
      ],
      "name": "InsufficientBalance",
      "type": "error"
    },
    {
      "anonymous": false,
      "inputs": [
        {
          "indexed": false,
          "internalType": "uint256",
          "name": "proposalId",
          "type": "uint256"
        },
        {
          "indexed": true,
          "internalType": "address",
          "name": "proposal",
          "type": "address"
        },
        {
          "indexed": true,
          "internalType": "address",
          "name": "collateralToken",
          "type": "address"
        }
      ],
      "name": "ProposalCreated",
      "type": "event"
    },
    {
      "inputs": [
        {
          "internalType": "string",
          "name": "_title",
          "type": "string"
        },
        {
          "internalType": "string",
          "name": "_description",
          "type": "string"
        },
        {
          "internalType": "string",
          "name": "_threshold",
          "type": "string"
        },
        {
          "internalType": "uint256",
          "name": "_duration",
          "type": "uint256"
        },
        {
          "internalType": "address",
          "name": "_collateralToken",
          "type": "address"
        }
      ],
      "name": "createProposal",
      "outputs": [
        {
          "internalType": "address",
          "name": "",
          "type": "address"
        }
      ],
      "stateMutability": "nonpayable",
      "type": "function"
    },
    {
      "inputs": [],
      "name": "exchange",
      "outputs": [
        {
          "internalType": "address",
          "name": "",
          "type": "address"
        }
      ],
      "stateMutability": "view",
      "type": "function"
    },
    {
      "inputs": [
        {
          "internalType": "uint256",
          "name": "id",
          "type": "uint256"
        }
      ],
      "name": "getProposal",
      "outputs": [
        {
          "internalType": "address",
          "name": "",
          "type": "address"
        }
      ],
      "stateMutability": "view",
      "type": "function"
    },
    {
      "inputs": [
        {
          "internalType": "address",
          "name": "proposalAddress",
          "type": "address"
        }
      ],
      "name": "getProposalDetails",
      "outputs": [
        {
          "components": [
            {
              "internalType": "address",
              "name": "submitter",
              "type": "address"
            },
            {
              "internalType": "address",
              "name": "proposalAddress",
              "type": "address"
            },
            {
              "internalType": "string",
              "name": "title",
              "type": "string"
            },
            {
              "internalType": "string",
              "name": "description",
              "type": "string"
            },
            {
              "internalType": "string",
              "name": "threshold",
              "type": "string"
            },
            {
              "internalType": "uint256",
              "name": "start",
              "type": "uint256"
            },
            {
              "internalType": "uint256",
              "name": "duration",
              "type": "uint256"
            },
            {
              "internalType": "address",
              "name": "collateralToken",
              "type": "address"
            }
          ],
          "internalType": "struct ProposalFactory.ProposalData",
          "name": "",
          "type": "tuple"
        }
      ],
      "stateMutability": "view",
      "type": "function"
    },
    {
      "inputs": [
        {
          "internalType": "uint256",
          "name": "start",
          "type": "uint256"
        },
        {
          "internalType": "uint256",
          "name": "end",
          "type": "uint256"
        }
      ],
      "name": "getProposalDetailsInRange",
      "outputs": [
        {
          "components": [
            {
              "internalType": "address",
              "name": "submitter",
              "type": "address"
            },
            {
              "internalType": "address",
              "name": "proposalAddress",
              "type": "address"
            },
            {
              "internalType": "string",
              "name": "title",
              "type": "string"
            },
            {
              "internalType": "string",
              "name": "description",
              "type": "string"
            },
            {
              "internalType": "string",
              "name": "threshold",
              "type": "string"
            },
            {
              "internalType": "uint256",
              "name": "start",
              "type": "uint256"
            },
            {
              "internalType": "uint256",
              "name": "duration",
              "type": "uint256"
            },
            {
              "internalType": "address",
              "name": "collateralToken",
              "type": "address"
            }
          ],
          "internalType": "struct ProposalFactory.ProposalData[]",
          "name": "",
          "type": "tuple[]"
        }
      ],
      "stateMutability": "view",
      "type": "function"
    },
    {
      "inputs": [],
      "name": "hello",
      "outputs": [
        {
          "internalType": "string",
          "name": "",
          "type": "string"
        }
      ],
      "stateMutability": "pure",
      "type": "function"
    },
    {
      "inputs": [],
      "name": "implementation",
      "outputs": [
        {
          "internalType": "address",
          "name": "",
          "type": "address"
        }
      ],
      "stateMutability": "view",
      "type": "function"
    },
    {
      "inputs": [],
      "name": "nextProposalId",
      "outputs": [
        {
          "internalType": "uint256",
          "name": "",
          "type": "uint256"
        }
      ],
      "stateMutability": "view",
      "type": "function"
    },
    {
      "inputs": [
        {
          "internalType": "address",
          "name": "",
          "type": "address"
        }
      ],
      "name": "proposalDetails",
      "outputs": [
        {
          "internalType": "address",
          "name": "submitter",
          "type": "address"
        },
        {
          "internalType": "address",
          "name": "proposalAddress",
          "type": "address"
        },
        {
          "internalType": "string",
          "name": "title",
          "type": "string"
        },
        {
          "internalType": "string",
          "name": "description",
          "type": "string"
        },
        {
          "internalType": "string",
          "name": "threshold",
          "type": "string"
        },
        {
          "internalType": "uint256",
          "name": "start",
          "type": "uint256"
        },
        {
          "internalType": "uint256",
          "name": "duration",
          "type": "uint256"
        },
        {
          "internalType": "address",
          "name": "collateralToken",
          "type": "address"
        }
      ],
      "stateMutability": "view",
      "type": "function"
    },
    {
      "inputs": [
        {
          "internalType": "uint256",
          "name": "",
          "type": "uint256"
        }
      ],
      "name": "proposals",
      "outputs": [
        {
          "internalType": "address",
          "name": "",
          "type": "address"
        }
      ],
      "stateMutability": "view",
      "type": "function"
    }
  ],
  "bytecode": "0x608060405234801561001057600080fd5b506040516121083803806121088339818101604052810190610032919061011d565b816000806101000a81548173ffffffffffffffffffffffffffffffffffffffff021916908373ffffffffffffffffffffffffffffffffffffffff16021790555080600160006101000a81548173ffffffffffffffffffffffffffffffffffffffff021916908373ffffffffffffffffffffffffffffffffffffffff160217905550505061015d565b600080fd5b600073ffffffffffffffffffffffffffffffffffffffff82169050919050565b60006100ea826100bf565b9050919050565b6100fa816100df565b811461010557600080fd5b50565b600081519050610117816100f1565b92915050565b60008060408385031215610134576101336100ba565b5b600061014285828601610108565b925050602061015385828601610108565b9150509250929050565b611f9c8061016c6000396000f3fe608060405234801561001057600080fd5b506004361061009e5760003560e01c80633b23c36d116100665780633b23c36d1461016f5780635c60da1b146101a6578063752d74d1146101c4578063c7f758a8146101f4578063d2f7265a146102245761009e565b8063013cf08b146100a357806303d1b330146100d35780630d6583011461010357806319ff1d21146101335780632ab09d1414610151575b600080fd5b6100bd60048036038101906100b8919061129b565b610242565b6040516100ca9190611309565b60405180910390f35b6100ed60048036038101906100e89190611324565b610275565b6040516100fa9190611592565b60405180910390f35b61011d600480360381019061011891906115e0565b610700565b60405161012a91906116cb565b60405180910390f35b61013b610a26565b6040516101489190611737565b60405180910390f35b610159610a63565b6040516101669190611768565b60405180910390f35b610189600480360381019061018491906115e0565b610a69565b60405161019d989796959493929190611783565b60405180910390f35b6101ae610ca9565b6040516101bb9190611309565b60405180910390f35b6101de60048036038101906101d9919061194b565b610ccd565b6040516101eb9190611309565b60405180910390f35b61020e6004803603810190610209919061129b565b61105b565b60405161021b9190611309565b60405180910390f35b61022c611098565b6040516102399190611309565b60405180910390f35b60026020528060005260406000206000915054906101000a900473ffffffffffffffffffffffffffffffffffffffff1681565b60608282116102b9576040517f08c379a00000000000000000000000000000000000000000000000000000000081526004016102b090611a66565b60405180910390fd5b6004548211156102fe576040517f08c379a00000000000000000000000000000000000000000000000000000000081526004016102f590611ad2565b60405180910390fd5b6000838361030c9190611b21565b67ffffffffffffffff81111561032557610324611820565b5b60405190808252806020026020018201604052801561035e57816020015b61034b6111ca565b8152602001906001900390816103435790505b50905060008490505b838110156106f55760006002600083815260200190815260200160002060009054906101000a900473ffffffffffffffffffffffffffffffffffffffff169050600360008273ffffffffffffffffffffffffffffffffffffffff1673ffffffffffffffffffffffffffffffffffffffff168152602001908152602001600020604051806101000160405290816000820160009054906101000a900473ffffffffffffffffffffffffffffffffffffffff1673ffffffffffffffffffffffffffffffffffffffff1673ffffffffffffffffffffffffffffffffffffffff1681526020016001820160009054906101000a900473ffffffffffffffffffffffffffffffffffffffff1673ffffffffffffffffffffffffffffffffffffffff1673ffffffffffffffffffffffffffffffffffffffff1681526020016002820180546104ae90611b84565b80601f01602080910402602001604051908101604052809291908181526020018280546104da90611b84565b80156105275780601f106104fc57610100808354040283529160200191610527565b820191906000526020600020905b81548152906001019060200180831161050a57829003601f168201915b5050505050815260200160038201805461054090611b84565b80601f016020809104026020016040519081016040528092919081815260200182805461056c90611b84565b80156105b95780601f1061058e576101008083540402835291602001916105b9565b820191906000526020600020905b81548152906001019060200180831161059c57829003601f168201915b505050505081526020016004820180546105d290611b84565b80601f01602080910402602001604051908101604052809291908181526020018280546105fe90611b84565b801561064b5780601f106106205761010080835404028352916020019161064b565b820191906000526020600020905b81548152906001019060200180831161062e57829003601f168201915b5050505050815260200160058201548152602001600682015481526020016007820160009054906101000a900473ffffffffffffffffffffffffffffffffffffffff1673ffffffffffffffffffffffffffffffffffffffff1673ffffffffffffffffffffffffffffffffffffffff16815250508387846106cb9190611b21565b815181106106dc576106db611bb5565b5b6020026020010181905250508080600101915050610367565b508091505092915050565b6107086111ca565b600360008373ffffffffffffffffffffffffffffffffffffffff1673ffffffffffffffffffffffffffffffffffffffff168152602001908152602001600020604051806101000160405290816000820160009054906101000a900473ffffffffffffffffffffffffffffffffffffffff1673ffffffffffffffffffffffffffffffffffffffff1673ffffffffffffffffffffffffffffffffffffffff1681526020016001820160009054906101000a900473ffffffffffffffffffffffffffffffffffffffff1673ffffffffffffffffffffffffffffffffffffffff1673ffffffffffffffffffffffffffffffffffffffff16815260200160028201805461080f90611b84565b80601f016020809104026020016040519081016040528092919081815260200182805461083b90611b84565b80156108885780601f1061085d57610100808354040283529160200191610888565b820191906000526020600020905b81548152906001019060200180831161086b57829003601f168201915b505050505081526020016003820180546108a190611b84565b80601f01602080910402602001604051908101604052809291908181526020018280546108cd90611b84565b801561091a5780601f106108ef5761010080835404028352916020019161091a565b820191906000526020600020905b8154815290600101906020018083116108fd57829003601f168201915b5050505050815260200160048201805461093390611b84565b80601f016020809104026020016040519081016040528092919081815260200182805461095f90611b84565b80156109ac5780601f10610981576101008083540402835291602001916109ac565b820191906000526020600020905b81548152906001019060200180831161098f57829003601f168201915b5050505050815260200160058201548152602001600682015481526020016007820160009054906101000a900473ffffffffffffffffffffffffffffffffffffffff1673ffffffffffffffffffffffffffffffffffffffff1673ffffffffffffffffffffffffffffffffffffffff16815250509050919050565b60606040518060400160405280600581526020017f68656c6c6f000000000000000000000000000000000000000000000000000000815250905090565b60045481565b60036020528060005260406000206000915090508060000160009054906101000a900473ffffffffffffffffffffffffffffffffffffffff16908060010160009054906101000a900473ffffffffffffffffffffffffffffffffffffffff1690806002018054610ad890611b84565b80601f0160208091040260200160405190810160405280929190818152602001828054610b0490611b84565b8015610b515780601f10610b2657610100808354040283529160200191610b51565b820191906000526020600020905b815481529060010190602001808311610b3457829003601f168201915b505050505090806003018054610b6690611b84565b80601f0160208091040260200160405190810160405280929190818152602001828054610b9290611b84565b8015610bdf5780601f10610bb457610100808354040283529160200191610bdf565b820191906000526020600020905b815481529060010190602001808311610bc257829003601f168201915b505050505090806004018054610bf490611b84565b80601f0160208091040260200160405190810160405280929190818152602001828054610c2090611b84565b8015610c6d5780601f10610c4257610100808354040283529160200191610c6d565b820191906000526020600020905b815481529060010190602001808311610c5057829003601f168201915b5050505050908060050154908060060154908060070160009054906101000a900473ffffffffffffffffffffffffffffffffffffffff16905088565b60008054906101000a900473ffffffffffffffffffffffffffffffffffffffff1681565b600080610cf960008054906101000a900473ffffffffffffffffffffffffffffffffffffffff166110be565b90508073ffffffffffffffffffffffffffffffffffffffff1663869d9f0b33898989428a600160009054906101000a900473ffffffffffffffffffffffffffffffffffffffff168b6040518963ffffffff1660e01b8152600401610d64989796959493929190611be4565b600060405180830381600087803b158015610d7e57600080fd5b505af1158015610d92573d6000803e3d6000fd5b505050508060026000600454815260200190815260200160002060006101000a81548173ffffffffffffffffffffffffffffffffffffffff021916908373ffffffffffffffffffffffffffffffffffffffff1602179055506040518061010001604052803373ffffffffffffffffffffffffffffffffffffffff1681526020018273ffffffffffffffffffffffffffffffffffffffff1681526020018881526020018781526020018681526020014281526020018581526020018473ffffffffffffffffffffffffffffffffffffffff16815250600360008373ffffffffffffffffffffffffffffffffffffffff1673ffffffffffffffffffffffffffffffffffffffff16815260200190815260200160002060008201518160000160006101000a81548173ffffffffffffffffffffffffffffffffffffffff021916908373ffffffffffffffffffffffffffffffffffffffff16021790555060208201518160010160006101000a81548173ffffffffffffffffffffffffffffffffffffffff021916908373ffffffffffffffffffffffffffffffffffffffff1602179055506040820151816002019081610f489190611e23565b506060820151816003019081610f5e9190611e23565b506080820151816004019081610f749190611e23565b5060a0820151816005015560c0820151816006015560e08201518160070160006101000a81548173ffffffffffffffffffffffffffffffffffffffff021916908373ffffffffffffffffffffffffffffffffffffffff1602179055509050508273ffffffffffffffffffffffffffffffffffffffff168173ffffffffffffffffffffffffffffffffffffffff167f7e5361edd70248cf0a9e88723fe06b63fa8cad3a111b246c13fe2be1c5318f456004600081548092919061103590611ef5565b919050556040516110469190611768565b60405180910390a38091505095945050505050565b60006002600083815260200190815260200160002060009054906101000a900473ffffffffffffffffffffffffffffffffffffffff169050919050565b600160009054906101000a900473ffffffffffffffffffffffffffffffffffffffff1681565b60006110cb8260006110d2565b9050919050565b60008147101561111b5747826040517fcf479181000000000000000000000000000000000000000000000000000000008152600401611112929190611f3d565b60405180910390fd5b763d602d80600a3d3981f3363d3d373d3d3d363d730000008360601b60e81c176000526e5af43d82803e903d91602b57fd5bf38360781b176020526037600983f09050600073ffffffffffffffffffffffffffffffffffffffff168173ffffffffffffffffffffffffffffffffffffffff16036111c4576040517fb06ebf3d00000000000000000000000000000000000000000000000000000000815260040160405180910390fd5b92915050565b604051806101000160405280600073ffffffffffffffffffffffffffffffffffffffff168152602001600073ffffffffffffffffffffffffffffffffffffffff1681526020016060815260200160608152602001606081526020016000815260200160008152602001600073ffffffffffffffffffffffffffffffffffffffff1681525090565b6000604051905090565b600080fd5b600080fd5b6000819050919050565b61127881611265565b811461128357600080fd5b50565b6000813590506112958161126f565b92915050565b6000602082840312156112b1576112b061125b565b5b60006112bf84828501611286565b91505092915050565b600073ffffffffffffffffffffffffffffffffffffffff82169050919050565b60006112f3826112c8565b9050919050565b611303816112e8565b82525050565b600060208201905061131e60008301846112fa565b92915050565b6000806040838503121561133b5761133a61125b565b5b600061134985828601611286565b925050602061135a85828601611286565b9150509250929050565b600081519050919050565b600082825260208201905092915050565b6000819050602082019050919050565b611399816112e8565b82525050565b600081519050919050565b600082825260208201905092915050565b60005b838110156113d95780820151818401526020810190506113be565b60008484015250505050565b6000601f19601f8301169050919050565b60006114018261139f565b61140b81856113aa565b935061141b8185602086016113bb565b611424816113e5565b840191505092915050565b61143881611265565b82525050565b6000610100830160008301516114576000860182611390565b50602083015161146a6020860182611390565b506040830151848203604086015261148282826113f6565b9150506060830151848203606086015261149c82826113f6565b915050608083015184820360808601526114b682826113f6565b91505060a08301516114cb60a086018261142f565b5060c08301516114de60c086018261142f565b5060e08301516114f160e0860182611390565b508091505092915050565b6000611508838361143e565b905092915050565b6000602082019050919050565b600061152882611364565b611532818561136f565b93508360208202850161154485611380565b8060005b85811015611580578484038952815161156185826114fc565b945061156c83611510565b925060208a01995050600181019050611548565b50829750879550505050505092915050565b600060208201905081810360008301526115ac818461151d565b905092915050565b6115bd816112e8565b81146115c857600080fd5b50565b6000813590506115da816115b4565b92915050565b6000602082840312156115f6576115f561125b565b5b6000611604848285016115cb565b91505092915050565b6000610100830160008301516116266000860182611390565b5060208301516116396020860182611390565b506040830151848203604086015261165182826113f6565b9150506060830151848203606086015261166b82826113f6565b9150506080830151848203608086015261168582826113f6565b91505060a083015161169a60a086018261142f565b5060c08301516116ad60c086018261142f565b5060e08301516116c060e0860182611390565b508091505092915050565b600060208201905081810360008301526116e5818461160d565b905092915050565b600082825260208201905092915050565b60006117098261139f565b61171381856116ed565b93506117238185602086016113bb565b61172c816113e5565b840191505092915050565b6000602082019050818103600083015261175181846116fe565b905092915050565b61176281611265565b82525050565b600060208201905061177d6000830184611759565b92915050565b600061010082019050611799600083018b6112fa565b6117a6602083018a6112fa565b81810360408301526117b881896116fe565b905081810360608301526117cc81886116fe565b905081810360808301526117e081876116fe565b90506117ef60a0830186611759565b6117fc60c0830185611759565b61180960e08301846112fa565b9998505050505050505050565b600080fd5b600080fd5b7f4e487b7100000000000000000000000000000000000000000000000000000000600052604160045260246000fd5b611858826113e5565b810181811067ffffffffffffffff8211171561187757611876611820565b5b80604052505050565b600061188a611251565b9050611896828261184f565b919050565b600067ffffffffffffffff8211156118b6576118b5611820565b5b6118bf826113e5565b9050602081019050919050565b82818337600083830152505050565b60006118ee6118e98461189b565b611880565b90508281526020810184848401111561190a5761190961181b565b5b6119158482856118cc565b509392505050565b600082601f83011261193257611931611816565b5b81356119428482602086016118db565b91505092915050565b600080600080600060a086880312156119675761196661125b565b5b600086013567ffffffffffffffff81111561198557611984611260565b5b6119918882890161191d565b955050602086013567ffffffffffffffff8111156119b2576119b1611260565b5b6119be8882890161191d565b945050604086013567ffffffffffffffff8111156119df576119de611260565b5b6119eb8882890161191d565b93505060606119fc88828901611286565b9250506080611a0d888289016115cb565b9150509295509295909350565b7f496e76616c69642072616e676500000000000000000000000000000000000000600082015250565b6000611a50600d836116ed565b9150611a5b82611a1a565b602082019050919050565b60006020820190508181036000830152611a7f81611a43565b9050919050565b7f52616e6765206578636565647320746f74616c2070726f706f73616c73000000600082015250565b6000611abc601d836116ed565b9150611ac782611a86565b602082019050919050565b60006020820190508181036000830152611aeb81611aaf565b9050919050565b7f4e487b7100000000000000000000000000000000000000000000000000000000600052601160045260246000fd5b6000611b2c82611265565b9150611b3783611265565b9250828203905081811115611b4f57611b4e611af2565b5b92915050565b7f4e487b7100000000000000000000000000000000000000000000000000000000600052602260045260246000fd5b60006002820490506001821680611b9c57607f821691505b602082108103611baf57611bae611b55565b5b50919050565b7f4e487b7100000000000000000000000000000000000000000000000000000000600052603260045260246000fd5b600061010082019050611bfa600083018b6112fa565b8181036020830152611c0c818a6116fe565b90508181036040830152611c2081896116fe565b90508181036060830152611c3481886116fe565b9050611c436080830187611759565b611c5060a0830186611759565b611c5d60c08301856112fa565b611c6a60e08301846112fa565b9998505050505050505050565b60008190508160005260206000209050919050565b60006020601f8301049050919050565b600082821b905092915050565b600060088302611cd97fffffffffffffffffffffffffffffffffffffffffffffffffffffffffffffffff82611c9c565b611ce38683611c9c565b95508019841693508086168417925050509392505050565b6000819050919050565b6000611d20611d1b611d1684611265565b611cfb565b611265565b9050919050565b6000819050919050565b611d3a83611d05565b611d4e611d4682611d27565b848454611ca9565b825550505050565b600090565b611d63611d56565b611d6e818484611d31565b505050565b5b81811015611d9257611d87600082611d5b565b600181019050611d74565b5050565b601f821115611dd757611da881611c77565b611db184611c8c565b81016020851015611dc0578190505b611dd4611dcc85611c8c565b830182611d73565b50505b505050565b600082821c905092915050565b6000611dfa60001984600802611ddc565b1980831691505092915050565b6000611e138383611de9565b9150826002028217905092915050565b611e2c8261139f565b67ffffffffffffffff811115611e4557611e44611820565b5b611e4f8254611b84565b611e5a828285611d96565b600060209050601f831160018114611e8d5760008415611e7b578287015190505b611e858582611e07565b865550611eed565b601f198416611e9b86611c77565b60005b82811015611ec357848901518255600182019150602085019450602081019050611e9e565b86831015611ee05784890151611edc601f891682611de9565b8355505b6001600288020188555050505b505050505050565b6000611f0082611265565b91507fffffffffffffffffffffffffffffffffffffffffffffffffffffffffffffffff8203611f3257611f31611af2565b5b600182019050919050565b6000604082019050611f526000830185611759565b611f5f6020830184611759565b939250505056fea26469706673582212202bfdd55ffc200eee486c62864e46820b1365a4014521ab938b65be8398b1e0e864736f6c634300081c0033",
  "linkReferences": {},
  "deployedLinkReferences": {}
}