{
  "_format": "hh-sol-artifact-1",
  "contractName": "Factory",
  "sourceName": "contracts/_sample/Factory.sol",
  "abi": [
    {
      "inputs": [
        {
          "internalType": "address",
          "name": "_implementation",
          "type": "address"
        }
      ],
      "stateMutability": "nonpayable",
      "type": "constructor"
    },
    {
      "anonymous": false,
      "inputs": [
        {
          "indexed": false,
          "internalType": "address",
          "name": "proxyAddress",
          "type": "address"
        }
      ],
      "name": "ProxyCreated",
      "type": "event"
    },
    {
      "inputs": [],
      "name": "createProxy",
      "outputs": [],
      "stateMutability": "nonpayable",
      "type": "function"
    },
    {
      "inputs": [],
      "name": "getProxies",
      "outputs": [
        {
          "internalType": "address[]",
          "name": "",
          "type": "address[]"
        }
      ],
      "stateMutability": "view",
      "type": "function"
    },
    {
      "inputs": [],
      "name": "implementation",
      "outputs": [
        {
          "internalType": "address",
          "name": "",
          "type": "address"
        }
      ],
      "stateMutability": "view",
      "type": "function"
    },
    {
      "inputs": [
        {
          "internalType": "uint256",
          "name": "",
          "type": "uint256"
        }
      ],
      "name": "proxies",
      "outputs": [
        {
          "internalType": "address",
          "name": "",
          "type": "address"
        }
      ],
      "stateMutability": "view",
      "type": "function"
    }
  ],
  "bytecode": "0x608060405234801561001057600080fd5b50604051610baa380380610baa833981810160405281019061003291906100db565b806000806101000a81548173ffffffffffffffffffffffffffffffffffffffff021916908373ffffffffffffffffffffffffffffffffffffffff16021790555050610108565b600080fd5b600073ffffffffffffffffffffffffffffffffffffffff82169050919050565b60006100a88261007d565b9050919050565b6100b88161009d565b81146100c357600080fd5b50565b6000815190506100d5816100af565b92915050565b6000602082840312156100f1576100f0610078565b5b60006100ff848285016100c6565b91505092915050565b610a93806101176000396000f3fe608060405234801561001057600080fd5b506004361061004c5760003560e01c80635c60da1b14610051578063684649a61461006f578063729a60c014610079578063abd90f8514610097575b600080fd5b6100596100c7565b60405161006691906102fb565b60405180910390f35b6100776100eb565b005b6100816101e0565b60405161008e91906103d4565b60405180910390f35b6100b160048036038101906100ac9190610431565b61026e565b6040516100be91906102fb565b60405180910390f35b60008054906101000a900473ffffffffffffffffffffffffffffffffffffffff1681565b60008060009054906101000a900473ffffffffffffffffffffffffffffffffffffffff1660405161011b906102ad565b61012591906102fb565b604051809103906000f080158015610141573d6000803e3d6000fd5b5090506001819080600181540180825580915050600190039060005260206000200160009091909190916101000a81548173ffffffffffffffffffffffffffffffffffffffff021916908373ffffffffffffffffffffffffffffffffffffffff1602179055507efffc2da0b561cae30d9826d37709e9421c4725faebc226cbbb7ef5fc5e7349816040516101d591906102fb565b60405180910390a150565b6060600180548060200260200160405190810160405280929190818152602001828054801561026457602002820191906000526020600020905b8160009054906101000a900473ffffffffffffffffffffffffffffffffffffffff1673ffffffffffffffffffffffffffffffffffffffff168152602001906001019080831161021a575b5050505050905090565b6001818154811061027e57600080fd5b906000526020600020016000915054906101000a900473ffffffffffffffffffffffffffffffffffffffff1681565b6105ff8061045f83390190565b600073ffffffffffffffffffffffffffffffffffffffff82169050919050565b60006102e5826102ba565b9050919050565b6102f5816102da565b82525050565b600060208201905061031060008301846102ec565b92915050565b600081519050919050565b600082825260208201905092915050565b6000819050602082019050919050565b61034b816102da565b82525050565b600061035d8383610342565b60208301905092915050565b6000602082019050919050565b600061038182610316565b61038b8185610321565b935061039683610332565b8060005b838110156103c75781516103ae8882610351565b97506103b983610369565b92505060018101905061039a565b5085935050505092915050565b600060208201905081810360008301526103ee8184610376565b905092915050565b600080fd5b6000819050919050565b61040e816103fb565b811461041957600080fd5b50565b60008135905061042b81610405565b92915050565b600060208284031215610447576104466103f6565b5b60006104558482850161041c565b9150509291505056fe608060405234801561001057600080fd5b506040516105ff3803806105ff8339818101604052810190610032919061011c565b806000806101000a81548173ffffffffffffffffffffffffffffffffffffffff021916908373ffffffffffffffffffffffffffffffffffffffff16021790555033600160006101000a81548173ffffffffffffffffffffffffffffffffffffffff021916908373ffffffffffffffffffffffffffffffffffffffff16021790555050610149565b600080fd5b600073ffffffffffffffffffffffffffffffffffffffff82169050919050565b60006100e9826100be565b9050919050565b6100f9816100de565b811461010457600080fd5b50565b600081519050610116816100f0565b92915050565b600060208284031215610132576101316100b9565b5b600061014084828501610107565b91505092915050565b6104a7806101586000396000f3fe6080604052600436106100385760003560e01c80630900f010146100fb5780635c60da1b146101245780638da5cb5b1461014f5761003f565b3661003f57005b60008060009054906101000a900473ffffffffffffffffffffffffffffffffffffffff169050600073ffffffffffffffffffffffffffffffffffffffff168173ffffffffffffffffffffffffffffffffffffffff16036100d4576040517f08c379a00000000000000000000000000000000000000000000000000000000081526004016100cb9061032b565b60405180910390fd5b60405136600082376000803683855af43d806000843e81600081146100f7578184f35b8184fd5b34801561010757600080fd5b50610122600480360381019061011d91906103ae565b61017a565b005b34801561013057600080fd5b50610139610284565b60405161014691906103ea565b60405180910390f35b34801561015b57600080fd5b506101646102a8565b60405161017191906103ea565b60405180910390f35b600160009054906101000a900473ffffffffffffffffffffffffffffffffffffffff1673ffffffffffffffffffffffffffffffffffffffff163373ffffffffffffffffffffffffffffffffffffffff161461020a576040517f08c379a000000000000000000000000000000000000000000000000000000000815260040161020190610451565b60405180910390fd5b806000806101000a81548173ffffffffffffffffffffffffffffffffffffffff021916908373ffffffffffffffffffffffffffffffffffffffff1602179055507fbc7cd75a20ee27fd9adebab32041f755214dbc6bffa90cc0225b39da2e5c2d3b8160405161027991906103ea565b60405180910390a150565b60008054906101000a900473ffffffffffffffffffffffffffffffffffffffff1681565b600160009054906101000a900473ffffffffffffffffffffffffffffffffffffffff1681565b600082825260208201905092915050565b7f496d706c656d656e746174696f6e206e6f742073657400000000000000000000600082015250565b60006103156016836102ce565b9150610320826102df565b602082019050919050565b6000602082019050818103600083015261034481610308565b9050919050565b600080fd5b600073ffffffffffffffffffffffffffffffffffffffff82169050919050565b600061037b82610350565b9050919050565b61038b81610370565b811461039657600080fd5b50565b6000813590506103a881610382565b92915050565b6000602082840312156103c4576103c361034b565b5b60006103d284828501610399565b91505092915050565b6103e481610370565b82525050565b60006020820190506103ff60008301846103db565b92915050565b7f4e6f7420746865206f776e657200000000000000000000000000000000000000600082015250565b600061043b600d836102ce565b915061044682610405565b602082019050919050565b6000602082019050818103600083015261046a8161042e565b905091905056fea2646970667358221220fea6a19f2eed8ef9d3ba062a19f6bf7c8afd1fca052a762ad55910123146613b64736f6c634300081c0033a26469706673582212206ab1782de8c40e55bbdba0e88217a157082011ef3f78348e37ed2e8306bcd6b664736f6c634300081c0033",
  "linkReferences": {},
  "deployedLinkReferences": {}
}